:020000040800F2
:1000000010300020050D0008290A00082B0A0008FE
:100010002F0A0008330A0008370A00080000000011
:100020000000000000000000000000003B0A000883
:100030003D0A0008000000003F0A0008410A0008CD
:100040001F0D00081F0D00081F0D00081F0D0008E0
:100050001F0D00081F0D00088B9E00081F0D0008D3
:100060001F0D0008699E00081F0D00081F0D0008E5
:100070001F0D00081F0D00081F0D00081F0D0008B0
:100080001F0D00081F0D00081F0D00081F0D0008A0
:100090001F0D00081F0D00081F0D0008E59E000839
:1000A0001F0D00081F0D00081F0D00081F0D000880
:1000B000DD2C00081F0D00081F0D00081F0D000893
:1000C0001F0D00081F0D00081F0D00081F0D000860
:1000D0001F0D00082D3A0008C3410008CD43000859
:1000E0001F0D00081F0D00081F0D00081F0D000840
:1000F0001F0D00081F0D00081F0D00081F0D000830
:100100001F0D00081F0D00081F0D00081F0D00081F
:100110001F0D00081F0D00081F0D00081F0D00080F
:100120001F0D00081F0D00081F0D00081F0D0008FF
:1001300000F002F800F063F80AA090E8000C824496
:100140008344AAF10107DA4501D100F058F8AFF273
:10015000090EBAE80F0013F0010F18BFFB1A43F0A5
:100160000103184734A3000054A300000A444FF0D1
:10017000000C10F8013B13F0070408BF10F8014B06
:100180001D1108BF10F8015B641E05D010F8016B4B
:10019000641E01F8016BF9D113F0080F1EBF10F8AF
:1001A000014BAD1C0C1B09D16D1E58BF01F801CBD2
:1001B000FAD505E014F8016B01F8016B6D1EF9D555
:1001C0009142D6D37047000000230024002500266A
:1001D000103A28BF78C1FBD8520728BF30C148BFAA
:1001E0000B6070471FB509F0B7FF04000020002125
:1001F0000AF02EF8401C60601FBD10B510BD09F05C
:10020000F3FF1146FFF7EEFF00F013FB0AF011F8C1
:1002100003B4FFF7F2FF03BC0AF012F84FF001003D
:1002200080F31388014802490160FEE70CED00E00D
:100230000400FA0510B50446F848046001E002F035
:10024000E7FFF64800680128F9D110BD30B585B048
:100250001421684609F055FF00250024012240F2D0
:100260005511EF4803F04AFAED48007800280BDDFD
:10027000EB480078682807DAE94802784FF4AB7158
:10028000E84803F03BFA06E00020E54908706721E2
:10029000E44809F014FF1421684609F032FF0122F6
:1002A000E021684603F02AFA9DF80000302808DDB6
:1002B0009DF80000392804DC9DF800003038C5B2F4
:1002C00016E09DF80000412808DB9DF80000462854
:1002D00004DC9DF800003738C5B209E02121D2A026
:1002E00004F029FDD94800210160818005B030BDAE
:1002F0002A46E121D54803F001FA1421684609F0A5
:1003000000FF0122C421684603F0F8F99DF80000BF
:10031000552802D008F044FE12E00122C721CC4843
:1003200003F0ECF9CA480278C821CA4803F0E6F99C
:10033000C948006820F4001000F50010C6490860A4
:10034000C5480068C0F3805068B9C3480068C0F36E
:10035000405010B108F02AFF05E01721BFA004F0BB
:10036000EAFCFFF75BFF1421684609F0CAFE02228F
:10037000C021684603F0C2F99DF801009DF8001005
:1003800040EA0124FA2C01DC052C15DA3C208DF81A
:10039000010000208DF800000222C021684603F011
:1003A00065F93C20B349088008460088032190FB8A
:1003B000F1F0B149087007E0AE48048000880321DD
:1003C00090FBF1F0AC4908701421684609F099FEE1
:1003D00002224FF48571684603F090F99DF8010000
:1003E0009DF8001040EA01244FF6FE70844201DCC3
:1003F000052C0FDA00208DF800005A208DF801003E
:1004000002224FF48571684603F030F95A209B4967
:10041000088001E0994804801421684609F071FEC3
:100420000422F021684603F069F99DF800000006F7
:100430009DF8011040EA01409DF8021040EA0120B9
:100440009DF8031008438E490860084600683C2860
:1004500014D9084600681E2810D228200860002001
:100460008DF800008DF801008DF8020028208DF82D
:1004700003000422F021684603F0F8F814216846CE
:1004800009F03FFE0222FA21684603F037F99DF891
:1004900001009DF8001040EA0124B4F5167F09DC44
:1004A0003C2C07DB9DF80000FF2803D09DF80100DD
:1004B000FF280FD101208DF800002C208DF80100BD
:1004C0000222FA21684603F0D1F84FF496706D4984
:1004D000088001E06B4804801421684609F011FE91
:1004E0000222D101684603F009F99DF801009DF848
:1004F000001040EA0124FA2C01DC022C13DA00205F
:100500008DF800000A208DF801000222D101684612
:1005100003F0ACF85C4804800088052190FBF1F002
:100520005A49088007E0584804800088052190FB5C
:10053000F1F0564908801421684609F0E2FD0222D4
:100540004FF48871684603F0D9F89DF801009DF8D2
:10055000001040EA0124A4F57F40FF3801D00A2CA6
:100560000EDA00208DF800008DF8010002224FF411
:100570008871684603F07AF800204549088001E058
:10058000434804801421684609F0BBFD022240F272
:100590001511684603F0B2F89DF801009DF80010AF
:1005A00040EA0124A4F57F40FF3801D00A2C0EDA7E
:1005B00000208DF800008DF80100022240F2151194
:1005C000684603F053F800203249088001E03148C2
:1005D00004801421684609F094FD02224FF48D71C5
:1005E000684603F08BF89DF801009DF8001040EA82
:1005F0000124A4F57F40FF3801D00A2C4EDA0020F8
:100600008DF800008DF8010002224FF48D716846CC
:1006100003F02CF800202049088041E0640000200D
:10062000B0000020E81B002042656E4A6948616FF7
:10063000204552524F522C205265736574204265FA
:100640006E4A6948616F0D0A000000001801002021
:100650001E0100208D290020240000205A687520EA
:100660006365206661696C2072657365742E2E2E39
:100670000D0A0000CA000020D6000020CC00002097
:10068000D0000020D4000020DE0000201001002057
:10069000300100203201002034010020BB480480DA
:1006A0001421684609F02DFD02224FF4907168462E
:1006B00003F024F89DF801009DF8001040EA0124A1
:1006C000A4F57F40FF3803D1B1490870487006E0B7
:1006D0009DF80000AE4908709DF801004870142193
:1006E000684609F00EFD022240F22511684603F02B
:1006F00005F89DF801009DF8001040EA0124A4F5DA
:100700007F40FF3803D1A3490870487006E09DF888
:100710000000A04908709DF8010048701421684647
:1007200009F0EFFC01224FF49871684602F0E6FFF1
:100730009DF800500E2D09DC1421684609F0E1FCFB
:100740002A4640F23111944802F0D8FF142168463D
:1007500009F0D7FC01224FF49571684602F0CEFFF4
:100760009DF80050FF2D01D08C480570142168467B
:1007700009F0C7FC01224FF4A071684602F0BEFFE9
:100780009DF80050032D01DC854805701421684652
:1007900009F0B7FC01224FF4A171684602F0AEFFE8
:1007A0009DF80050052D01DC7E4805701421684637
:1007B00009F0A7FC01224FF4A271684602F09EFFE7
:1007C0009DF80050042D01DC7748057000BF8DE5D1
:1007D00010B54FF4A06000F061FC09F0BFFA02F020
:1007E000E7F900F021FA4FF47A71042002F0FEFCE0
:1007F00040F2CF2140F2E73002F042FA02F008FD69
:1008000002F0B1FD02F004FD4FF4964003F01CF835
:1008100002F0FEFC4FF4965003F065F802F0F8FC8D
:100820004FF4165003F0AFF802F0F2FC02F0BDFFF7
:1008300010BD00245D48406A5D49086000BF0DE0BE
:10084000A1005B480068C84000F00F005949085CEF
:10085000C4F10701584A5054601CC4B2082CEFDBA5
:10086000FFF7B6FF55480021016041605448016020
:10087000416002F0CDFC4D48406A40F080704B4929
:1008800048620F214FA004F056FA08214A4804F0AC
:1008900052FA0221AFF2282004F04DFA16214DA0A1
:1008A00004F049FA302151A004F045FA04F0C0FEEA
:1008B0004FF4E13003F067F84FF4965003F013F86B
:1008C00004F041FB0F213FA004F0B2FA08213A489E
:1008D00004F0AEFA022144A004F0AAFA07F0D9F815
:1008E00006F080F8FFF7B2FC4FE002F091FC08F050
:1008F00061FE02F08DFC08F0E1FC02F089FC08F0DA
:10090000EFF902F085FC08F094FF02F081FC2B481F
:100910000068C0F30140022801D106F0D5F927484C
:100920008088C0F3802038B12448406820F480607B
:100930002249486005F07CFC21480068C0F3407003
:1009400040B137480078C82804DB002034490870DB
:1009500006F01CFF33480078FA2805DA17480068CB
:10096000C0F30140032810D106F05DFD00202D49A1
:10097000087012480068C0F30140032805D10F48F1
:10098000006820F440300D490860AEE734010020D3
:100990003601002038010020A12900203A01002062
:1009A0003C0100203D0100203E01002000100240DB
:1009B000080000200C0000201C0000202400002063
:1009C0002C000020526573657420536F7572636547
:1009D0003A2000004648542D47424F4244323031BD
:1009E00034303631362E2E2E0D0A000070726573AB
:1009F00073222525252525252522464F52204445AD
:100A0000425547204D4F44454C2077687468696EC5
:100A1000203130732E2E2E2E2E2E0D0A00000000B7
:100A20000500002004000020704700BFFEE700BF63
:100A3000FEE700BFFEE700BFFEE770477047704764
:100A4000704700000CB50020019000906B480068D2
:100A500040F480306949086000BF6848006800F4CD
:100A6000003000900198401C0190009818B901983E
:100A7000B0F5A06FF1D16148006810F4003F02D0DA
:100A80000120009001E0002000900098012842D150
:100A90005B48006840F0100059490860084600684B
:100AA00020F0030008600846006840F0020008607B
:100AB00052484068514948600846406848600846C6
:100AC000406840F4806048600846406820F47C102C
:100AD00048600846406840F488104860084600684E
:100AE00040F08070086000BF4448006810F0007F4C
:100AF000FAD04248406820F0030040494860084668
:100B0000406840F00200486000BF3C48406800F088
:100B10000C000828F9D10CBD10B5FFF793FF10BDEC
:100B200010B53648006840F00100344908600846B6
:100B300040683449084031494860084600683249F5
:100B400008402E4908600846006820F480200860AC
:100B50000846406820F4FE0048604FF41F0088609B
:100B6000FFF7DAFF4FF000602849086010BD10B5AC
:100B7000002100200022214B5B6803F00C0121B111
:100B8000042906D0082928D107E0214B214C2360F5
:100B900027E0214B1F4C236023E0184B5B6803F4D4
:100BA0007010164B5B6803F48032022303EB904015
:100BB00022B91A4B4343174C23600DE00F4B5B687F
:100BC00013F4003F04D0164B4343124C236003E060
:100BD000114B43430F4C236003E00D4B0D4C23603E
:100BE00000BF00BF054B5B68C3F303130D4CE15C12
:100BF000084B1B68CB40074C236010BD001002401F
:100C0000002002400000FFF8FFFFF6FE08ED00E0C4
:100C100000127A0034000020001BB70000093D00DC
:100C2000808D5B003800002008B501211C2000F0F9
:100C30000DFC0220ADF8000010208DF80300032009
:100C40008DF8020069462C4800F0DCF84FF4006093
:100C5000ADF8000014208DF803006946264800F026
:100C6000D1F8002240F60201234800F07AF9012071
:100C7000ADF8000048208DF8030003208DF8020035
:100C800069461E4800F0BEF848F20200ADF80000C8
:100C900010208DF8030003208DF8020069461748E4
:100CA00000F0B0F8012248F20201144800F059F9AE
:100CB0000220ADF8000028208DF8030003208DF8F5
:100CC000020069460E4800F09DF84FF4A070ADF8A0
:100CD000000010208DF8030003208DF80200694603
:100CE000074800F08FF800224FF4A071044800F08C
:100CF00038F908BD7047000000080140000C0140B1
:100D0000001001400948804709480047FEE7FEE718
:100D1000FEE7FEE7FEE7FEE7FEE7FEE7FEE7FEE7AB
:100D200004480549054A064B70470000210B00089E
:100D300031010008102A002010300020102C002063
:100D4000102C002010B50446CA48844208D1012165
:100D5000042000F095FB0021042000F091FB46E008
:100D6000C548844208D10121082000F089FB0021F8
:100D7000082000F085FB3AE0C048844208D10121F8
:100D8000102000F07DFB0021102000F079FB2EE008
:100D9000BB48844208D10121202000F071FB0021D2
:100DA000202000F06DFB22E0B648844208D10121EA
:100DB000402000F065FB0021402000F061FB16E0C0
:100DC000B148844208D10121802000F059FB002164
:100DD000802000F055FB0AE0AC48844207D1012195
:100DE000801500F04DFB0021A01500F049FB10BD5F
:100DF00010B50121084600F043FB0021012000F05E
:100E00003FFB10BD2DE9F0410246002500260020E1
:100E100000230024002791F803C00CF00F0591F87F
:100E200003C01CF0100F03D091F802C04CEA050576
:100E300091F800C0BCF1000F31D0146800202BE005
:100E40004FF0010C0CFA00F3B1F800C00CEA0306F5
:100E50009E4220D183004FF00F0C0CFA03F7BC43E5
:100E600005FA03FC4CEA040491F803C0BCF1280F16
:100E700006D14FF0010C0CFA00FCC2F814C00AE0D5
:100E800091F803C0BCF1480F05D14FF0010C0CFAEA
:100E900000FCC2F810C0401C0828D1D31460B1F87F
:100EA00000C0BCF1FF0F34DD546800202EE000F1DB
:100EB000080C4FF0010808FA0CF3B1F800C00CEA76
:100EC00003069E4221D183004FF00F0C0CFA03F76A
:100ED000BC4305FA03FC4CEA040491F803C0BCF1DE
:100EE000280F05D100F1080C08FA0CF8C2F814809C
:100EF00091F803C0BCF1480F07D100F1080C4FF086
:100F0000010808FA0CF8C2F81080401C0828CED35B
:100F10005460BDE8F0814FF6FF71018002218170BD
:100F20000421C17070470246002093680B4201D033
:100F3000012000E0002070470146886880B27047B9
:100F400002460020D3680B4201D0012000E00020BF
:100F500070470146C86880B27047016170474161BF
:100F600070470AB1016100E041617047C16070479C
:100F70004FF480320A4382618161826182698269B1
:100F8000704702460020424B18684FF680731840A5
:100F900040EA021008433E4B186070473D49C86163
:100FA0007047F0B50A46002300240021002500F018
:100FB0000046B6F1004F02D1354EF16901E0344EE2
:100FC0007168C0F3034583B200F44016B6F5401FC4
:100FD00008D121F070612E4E766826F070662C4F95
:100FE0007E6012E000F48016B6F5801F06D103265D
:100FF00006FA05F4A14341F0706106E0460D3601A2
:1010000003FA06F6B14341F0706122B1460D360194
:1010100003FA06F6314300F00046B6F1004F02D164
:101020001B4EF16101E01A4E7160F0BD30B5002237
:101030008B071C0F0F2303FA04F2154B08338C1097
:1010400053F824309343124C08348D1044F8253063
:1010500023468C1053F824308C07240F00FA04F434
:1010600023430B4C08348D1044F8253030BD0A4919
:101070000860704700080140000C0140001001406A
:101080000014014000180140001C014000200140F4
:101090000000014000002042DC00204231490143B1
:1010A000314A1160704770B5002100230F22C478C7
:1010B0000CB32D4C246804F4E064C4F5E064210A08
:1010C000C1F10403CA40447804FA03F1847814405F
:1010D00021430901254C0678A155047804F01F0529
:1010E0000124AC4005786D114FF0E02606EB850534
:1010F000C5F8004109E0047804F01F050124AC4064
:101100001B4D0678761145F8264070BD194A0A40F5
:101110000243154B1B1F1A60704739B1124A121D4A
:1011200012680243104B1B1D1A6006E00E4A121D86
:10113000126882430C4B1B1D1A607047042808D1AB
:101140004FF0E021096941F004014FF0E022116104
:1011500007E04FF0E021096921F004014FF0E0229F
:10116000116170470000FA050CED00E000E400E0BA
:1011700080E100E080FFFF1FDD48006840F00100D3
:10118000DB49086008464068DA490840D8494860A9
:1011900008460068D8490840D549086008460068F4
:1011A00020F4802008600846406820F4FE00486073
:1011B0004FF41F0088607047CD49096821F48031E1
:1011C000CB4A11601146096821F480211160B0F505
:1011D000803F03D0B0F5802F0ED106E0C4490968E6
:1011E00041F48031C24A116007E0C149096841F405
:1011F000A021BF4A116000E000BF00BF704710B5DA
:1012000001460022002300204A11012A02D1B84CD5
:10121000236806E0022A02D1B54C236A01E0B44CEF
:10122000636A01F01F02012494401C4201D0012096
:1012300000E0002010BD38B50020009000240025FB
:1012400000BF3120FFF7DBFF05460098401C0090EF
:101250000098B0F5A06F01D0002DF2D03120FFF73B
:10126000CEFF08B1012400E00024204638BD01462D
:1012700000209F4A106820F0F80040EAC10010608A
:1012800070479E490860704702460020984B586896
:1012900020F47C1042EA01031843954B58607047D4
:1012A00096490866704701460020914A506820F030
:1012B00003000843506070478D48406800F00C0000
:1012C0007047014600208A4A506820F0F000084329
:1012D0005060704701460020854A506820F4E06065
:1012E00008435060704701460020814A506820F44E
:1012F000605040EAC1005060704729B17C4A527A80
:1013000002437B4B5A7204E0794A527A8243784B0B
:101310005A7270477A490860704701460020744A43
:10132000506820F440400843506070470021754ADF
:1013300011706F4A82F82010012802D0042808D1C9
:1013400003E001216F4A117004E005216D4A11701C
:1013500000E000BF00BF70476B49086070476449F8
:10136000096A0143624A116270476749443908605B
:10137000704730B500210022002400235C4D6D68C9
:1013800005F00C0121B1042905D0082923D105E07D
:101390005E4D056022E05E4D05601FE0544D6D68B6
:1013A00005F47012524D6D6805F48034022505EB8A
:1013B00092421CB9574D554305600BE04C4D6D688A
:1013C00015F4003F03D0544D5543056002E0504DE5
:1013D0005543056002E04D4D056000BF00BF444D20
:1013E0006D6805F0F00109094C4D6B5C0568DD4046
:1013F00045603F4D6D6805F4E061090A474D6B5C3F
:101400004568DD4085603A4D6D6805F46051C90A54
:10141000424D6B5C4568DD40C560354D6D6805F437
:101420004041890B3E4D6B5CC568B5FBF3F505612A
:1014300030BD29B12E4A526902432D4B5A6104E056
:101440002B4A526982432A4B5A61704729B1284A74
:1014500092690243264B9A6104E0254A92698243CD
:10146000234B9A61704729B1214AD2690243204B2C
:10147000DA6104E01E4AD26982431D4BDA6170478B
:1014800029B11B4AD2680243194BDA6004E0184ABA
:10149000D2688243164BDA60704729B1144A126948
:1014A0000243134B1A6104E0114A12698243104B44
:1014B0001A61704714494039086070470F49C86481
:1014C00070470B49C87170470948406A40F0807006
:1014D00007494862704701460020054A92680A425F
:1014E00001D0012000E00020704701498872704758
:1014F000001002400000FFF8FFFFF6FE000042422D
:10150000D8004242201002408004424200127A0079
:10151000001BB70000093D00808D5B0049000020E2
:101520005900002010B50446FB48844209D101212E
:101530008803FFF7A5FF00214FF48040FFF7A0FFCD
:1015400032E0F648844209D101214804FFF7A5FFA3
:1015500000214FF40030FFF7A0FF25E0F04884425F
:1015600009D101218804FFF798FF00214FF4802062
:10157000FFF793FF18E0EB48844209D10121C8042A
:10158000FFF78BFF00214FF40020FFF786FF0BE0F1
:10159000E548844208D101210805FFF77EFF0021BC
:1015A0004FF48010FFF779FF10BD2DE9F04786B0AA
:1015B00005460E460024A24600BFA1460027B0897A
:1015C00000B100BF2F462C8A4CF6FF700440F08813
:1015D00004432C82AC894EF6F3100440B088318964
:1015E0000843718908430443AC81AC8A4FF6FF403D
:1015F0000440B0890443AC8201A8FFF7BAFEC64894
:10160000874202D1DDF810A001E0DDF80CA0A88926
:1016100010F4004F08D00AEBCA0000EB0A10316842
:101620004900B0FBF1F807E00AEBCA0000EB0A1032
:1016300031688900B0FBF1F86420B8FBF0F00401D8
:101640002009642101FB1089A88910F4004F08D0FB
:10165000322000EBC900B0FBF1F000F007000443BA
:1016600008E0322000EB09106421B0FBF1F000F03B
:101670000F0004432C8106B0BDE8F0874FF41651EB
:10168000016000218180C18001810C214181002104
:101690008181704710B502460020108A4FF2FF0387
:1016A00018400B884C8823438C882343CC882343E1
:1016B0001843108210BD0021018041808180C180CB
:1016C000704721B1828942F40052828104E082890C
:1016D0004DF6FF731A4082817047F0B5034600242F
:1016E000002600250020A1F510676A3F00D100BF49
:1016F0001846C1F3421401F01F06012707FA06F548
:10170000012C01D10C3004E0022C01D1103000E09A
:1017100014301AB107682F43076002E00768AF432F
:101720000760F0BD1AB1838A0B43838202E0838A8B
:101730008B4383827047028A4FF6F0731A4002820D
:10174000028A0A430282704782894FF2FF731A406D
:10175000828182890A438281704721B1828942F065
:101760000202828104E082894FF6FD731A40828171
:101770007047028A4FF6DF731A400282028A0A43D8
:101780000282704721B1028A42F48042028204E060
:10179000028A4BF6FF731A4002827047C1F30802B7
:1017A0008280704701468888C0F3080070478189AD
:1017B00041F0010181817047028BD2B20283028B1A
:1017C00042EA012202837047028B02F47F420283C5
:1017D000028B0A430283704721B1828A42F02002C1
:1017E000828204E0828A4FF6DF731A408282704759
:1017F00021B1828A42F01002828204E0828A4FF68E
:10180000EF731A408282704721B1828A42F0080247
:10181000828204E0828A4FF6F7731A408282704710
:1018200021B1828942F40042828103E08289C2F3BD
:101830000E028281704721B1828A42F40062828264
:1018400004E0828A4FF2FF731A4082827047828AD4
:101850004FF6FB731A408282828A0A438282704763
:1018600021B1828A42F00202828204E0828A4FF62B
:10187000FD731A408282704702460020B1F5007F56
:1018800000D100BF13880B4201D0012000E00020EE
:10189000704701F40072B2F5007F00D100BFCA4367
:1018A0000280704770B50246002400230025002006
:1018B000A1F510666A3E00D100BFC1F3421501F0E8
:1018C0001F03012606FA03F3012D02D19689334046
:1018D00006E0022D02D1168A334001E0968A334099
:1018E0000C12012606FA04F41688344013B10CB128
:1018F000012000E0002070BD10B500220023A1F5FA
:1019000010646A3C00D100BF0A1201249440A3B2C3
:10191000DC43048010BD000000380140004400405A
:1019200000480040004C00400050004010B5044604
:10193000FE48844208D10121C014FFF7A1FD002117
:10194000E014FFF79DFDC4E0B4F1804F08D1012100
:101950000846FFF7A2FD00210120FFF79EFDB8E039
:10196000F348844208D101210220FFF796FD0021AF
:101970000220FFF792FDACE0EE48844208D101213D
:101980000420FFF78AFD00210420FFF786FDA0E078
:10199000E948844208D101210820FFF77EFD00219B
:1019A0000820FFF77AFD94E0E448844208D1012141
:1019B0001020FFF772FD00211020FFF76EFD88E078
:1019C000DF48844208D101212020FFF766FD002175
:1019D0002020FFF762FD7CE0DA48844208D1012133
:1019E0004014FFF74DFD00216014FFF749FD70E042
:1019F000D548844209D10121C804FFF741FD0021E7
:101A00004FF40020FFF73CFD63E0D048844209D149
:101A100001210805FFF734FD00214FF48010FFF786
:101A20002FFD56E0CA48844209D101214805FFF73D
:101A300027FD00214FF40010FFF722FD49E0C548C3
:101A4000844208D101214020FFF727FD00214020DA
:101A5000FFF723FD3DE0C048844208D101218020EA
:101A6000FFF71BFD00218020FFF717FD31E0BB4889
:101A7000844208D101218015FFF70FFD0021A01538
:101A8000FFF70BFD25E0B648844209D10121080487
:101A9000FFF7F6FC00214FF48030FFF7F1FC18E06F
:101AA000B048844209D101214804FFF7E9FC002134
:101AB0004FF40030FFF7E4FC0BE0AB48844208D160
:101AC00001218804FFF7DCFC00214FF48020FFF7A0
:101AD000D7FC10BD00220288944B98420ED0994B3F
:101AE00098420BD0B0F1804F08D0914B984205D06E
:101AF000904B984202D0904B984204D14FF68F738E
:101B00001A404B881A438D4B984207D08C4B984211
:101B100004D04FF6FF431A40CB881A4302808B88CB
:101B200083850B880385814B98420BD0854B984267
:101B300008D08B4B984205D08A4B984202D08A4BF2
:101B4000984201D10B7A038601238382704770B5D6
:101B5000002400220023058C4FF6FE7635400584D4
:101B6000028C8388048B4FF68F752C40B51E2C4059
:101B70000D882C43751E2A400D892A434D882A431F
:101B80006A4DA8420BD06F4DA84208D0744DA842B0
:101B900005D0744DA84202D0734DA84213D14FF620
:101BA000F7752A404D892A434FF6FB752A408D88E8
:101BB0002A434FF6FF652B404FF6FF552B408D898A
:101BC0002B43CD892B4383800483CD888586028473
:101BD00070BD70B5002400220023058C4FF6EF760F
:101BE00035400584028C8388048B48F6FF752C40B1
:101BF0004FF6FF452C400D884FF6FF7606EA052587
:101C00002C434FF6DF752A400D8906EA05152A4355
:101C10004D8806EA05152A43444DA84202D0494D95
:101C2000A8421DD14FF67F752A404D894FF6FF76A9
:101C300006EA05152A434FF6BF752A408D8806EA45
:101C400005152A434FF6FF352B404FF2FF752B4009
:101C50008D8906EA85052B43CD8906EA85052B4348
:101C600083800483CD880587028470BD70B500240D
:101C700000220023058C4FF6FF6635400584028C58
:101C80008388848B4FF68F752C404FF6FC752C4063
:101C90000D882C434FF6FF552A400D894FF6FF76ED
:101CA00006EA05252A434D8806EA05252A431F4DE5
:101CB000A84202D0234DA8421DD14FF2FF752A4001
:101CC0004D894FF6FF7606EA05252A434FF6FF3584
:101CD0002A408D8806EA05252A434EF6FF752B40DB
:101CE0004DF6FF752B408D8906EA05152B43CD89EE
:101CF00006EA05152B4383808483CD88858702847B
:101D000070BD70B5002200230024058C4EF6FF76CE
:101D100035400584038C8488828B48F6FF752A4001
:101D20004FF6FF452A400D8820E00000002C0140BE
:101D30000004004000080040000C0040001000407B
:101D40000014004000340140004C014000500140AC
:101D50000054014000180040001C004000200040DA
:101D60000040014000440140004801404FF6FF762A
:101D700006EA05252A434DF6FF752B400D8906EA34
:101D800005352B434D8806EA05352B43FA4DA8420D
:101D900002D0FA4DA84208D14BF6FF752C408D8930
:101DA0004FF6FF7606EA85152C4384808283CD8822
:101DB000A0F84050038470BD828B4FF2FF331A406D
:101DC0008283828B4FF6FF7303EA01231A438283D7
:101DD0007047F0B50C461546002200210026078CFE
:101DE0004EF6FF7C07EA0C070784828B018C4FF6C6
:101DF000FF7707EA043640F6FF473A404FF6FF7791
:101E000007EA05273A434FF6FF7707EA03373A43D5
:101E1000D94FB8420ED0D94FB8420BD0B0F1804F55
:101E200008D0D74FB84205D0D64FB84202D0D64FCF
:101E3000B84206D14DF6FF77394046F48057394312
:101E400005E047F6FF57394044F480573943828311
:101E50000184F0BD828B4FF6F3731A408283828B2C
:101E60000A4382837047F0B50C46154600220021D4
:101E70000026078C4FF6FF6C07EA0C070784828B5D
:101E8000018C4FF6FF7707EA04264FF60C773A40AD
:101E90004FF6FF7707EA03172F433A43B64FB8428E
:101EA0000ED0B64FB8420BD0B0F1804F08D0B44F2F
:101EB000B84205D0B34FB84202D0B34FB84206D1B2
:101EC0004FF6FF57394046F48077394305E04FF22B
:101ED000FF57394044F48077394382830184F0BD51
:101EE000028B4FF2FF331A400283028B4FF6FF73CF
:101EF00003EA01231A4302837047F0B50C461546E6
:101F0000002200210026078C4FF6EF7C07EA0C0721
:101F10000784028B018C4FF6FF7707EA041640F620
:101F2000FF473A404FF6FF7707EA03373A434FF649
:101F3000FF7707EA05273A438F4FB8420ED08F4FFD
:101F4000B8420BD0B0F1804F08D08D4FB84205D0C9
:101F50008C4FB84202D08C4FB84206D14FF6DF7793
:101F6000394046F01007394305E04FF65F773940B6
:101F700044F01007394302830184F0BD028B4FF611
:101F8000F3731A400283028B0A4302837047F0B551
:101F90000C46154600220021068C4FF6FE773E4087
:101FA0000684028B018C4FF60C7632407E1C06EACA
:101FB00003162E433243704EB0420ED06F4EB042E5
:101FC0000BD0B0F1804F08D06D4EB04205D06D4EB1
:101FD000B04202D06C4EB04206D14FF6FD76314091
:101FE00044F00106314305E04FF6F576314044F008
:101FF0000106314302830184F0BD70B505460C46ED
:102000005D4885420ED05D4885420BD0B5F1804FCA
:1020100008D05B48854205D05A48854202D05A48CC
:10202000854200D100E000BF208850B92389A288F2
:1020300061882846FFF7ABFFE1882846FFF79EFF3F
:1020400025E0208804280AD12389A28861882846AF
:10205000FFF753FFE1882846FFF742FF17E020888B
:1020600008280AD12389A28861882846FFF7FBFE49
:10207000E1882846FFF7EEFE09E02389A2886188FF
:102080002846FFF7A6FEE1882846FFF795FE70BDBB
:102090002DE9F04105460C4600260127608808B965
:1020A000022600E00026A088012801D1022700E0D6
:1020B00001272088A0B92389A28861882846FFF7D4
:1020C00066FFE1882846FFF759FF23893A463146E3
:1020D0002846FFF712FFE1882846FFF701FF13E0CB
:1020E0002389A28861882846FFF707FFE1882846F0
:1020F000FFF7F6FE23893A4631462846FFF747FFA9
:10210000E1882846FFF73AFFBDE8F0810A884B884E
:102110001A438B881A43CB881A430B891A434B897D
:102120001A438B891A43A0F8442070474FF6FF7179
:10213000818000210180C1804180017270470021AF
:10214000018041808180C180018141818181C18183
:102150007047002101804180012181800021C180E0
:10216000018170470021018041808180C18001810F
:102170004181818170470000002C01400034014002
:102180000004004000080040000C004021B102881B
:1021900042F00102028004E002884FF6FE731A400A
:1021A0000280704731B1B0F8442042F40042A0F8F8
:1021B000442005E0B0F84420C2F30E02A0F8442009
:1021C00070471AB183890B43838102E083898B4373
:1021D000838170478182704741EA0203A0F848304A
:1021E00070471AB183890B43838102E083898B4353
:1021F0008381704701894FF6F87211400181704761
:102200000A46002101894FF68F731940114301815D
:10221000704730B504460D4629462046FFF7F0FFCB
:10222000208940F00700208130BD2DE9F0410446AF
:102230000D4616461F46602D06D13B46012231460B
:102240002046FFF75AFE05E03B4601223146204674
:10225000FFF79DFE29462046FFF7D2FF208940F078
:1022600007002081BDE8F08130B50C4600210189CE
:10227000C9B24FF6FF7505EA0325154325432943E7
:10228000018130BD2DE9F04105460E4617469846BE
:10229000002443463A4631462846FFF7E5FF2C899D
:1022A0004FF6F870044044F007044FF68F70044076
:1022B00044F070042C81BDE8F081F0B504460D4671
:1022C00016461F463B46324629462046FFF7CCFFBE
:1022D000208940F480402081F0BD018582827047D2
:1022E0000A46002101884FF68F731940114301807F
:1022F0007047F0B50C4615461E460021002200230B
:102300000189028B038C4FF6F877394021434FF651
:10231000FC473A4040F201173A434FF6DD773B4025
:102320004FF6FF7707EA06172F433B4301810283ED
:102330000384F0BD0A460021018B4FF68F731940CC
:102340001143018370470A460021018B48F6FF7351
:1023500019404FF6FF7303EA0223194301837047C4
:102360000A460021818B4FF68F73194011438183F8
:1023700070470A460021818B48F6FF7319404FF6DB
:10238000FF7303EA022319438183704721B1028856
:1023900042F08002028004E002884FF67F731A4008
:1023A0000280704721B1828842F00402828004E0FA
:1023B00082884FF6FB731A408280704721B1828871
:1023C00042F00802828004E082884FF6F7731A40D8
:1023D0008280704721B1828842F00102828004E04D
:1023E00082884FF6FE731A40828070470A460021A9
:1023F000018B4FF6F77319401143018370470A466A
:102400000021018B4FF2FF7319404FF6FF7303EA6F
:1024100002231943018370470A460021818B4FF63E
:10242000F77319401143818370470A460021818B5D
:102430004FF2FF7319404FF6FF7303EA022319436B
:10244000818370470A460021018B4FF6FB731940C8
:102450001143018370470A460021018B4FF6FF3379
:1024600019404FF6FF7303EA0223194301837047B3
:102470000A460021818B4FF6FB731940114381837B
:1024800070470A460021818B4FF6FF3319404FF603
:10249000FF7303EA02231943818370470A46002130
:1024A000018B4FF67F7319401143018370470A4631
:1024B0000021018BC1F30E014FF6FF7303EA0223E3
:1024C0001943018370470A460021818B4FF67F73C1
:1024D00019401143818370470A460021818BC1F363
:1024E0000E014FF6FF7303EA0223194381837047FD
:1024F0000A460021018C4FF6FD73194011430184F7
:1025000070470A460021018C4FF6F77319401143BA
:10251000018470470A460021018C4FF6DF73194091
:102520004FF6FF7303EA02131943018470470A460A
:102530000021018C4FF67F7319404FF6FF7303EAB9
:1025400002131943018470470A460021018C4FF69B
:10255000FF5319404FF6FF7303EA02231943018426
:1025600070470A460021018C4FF2FF7319404FF665
:10257000FF7303EA02231943018470470A460021CE
:10258000018C4DF6FF7319404FF6FF7303EA0233D7
:1025900019430184704730B5002301248C40A3B255
:1025A000048C9C430484048C02FA01F5ADB22C43E4
:1025B000048430BD30B5002304248C40A3B2048CC5
:1025C0009C430484048C02FA01F5ADB22C430484CC
:1025D00030BD70B503460020002418461830012590
:1025E0008D40ACB21D8CA5431D8409B1082909D1C9
:1025F00000EB6100056825F070050560056815436E
:1026000005600EE00D1FC5F34E052844056825F44E
:10261000E045056005684FF6FF7606EA0226354379
:10262000056070BD21B1028842F00202028004E020
:1026300002884FF6FD731A400280704721B102886C
:1026400042F00402028004E002884FF6FB731A4055
:102650000280704721B1828842F08002828004E0CB
:1026600082884FF67F731A408280704702884FF647
:10267000F7731A40028002880A43028070478288FA
:102680004FF68F731A40828082880A438280704797
:1026900002894FF6F8731A40028102890A430281C7
:1026A000704702894FF67F731A40028102890A43FC
:1026B00002817047818470478185704781867047A9
:1026C0000187704781877047A0F8401070470288E3
:1026D0004FF6FF431A40028002880A430280704787
:1026E0000146888E70470146088F70470146888FE3
:1026F00070470146B1F8400070470146888C70472A
:102700000146088D704702460020138A0B4201D013
:10271000012000E000207047CA430282704730B5B4
:102720000246002000230024158A05EA010395894A
:1027300005EA010413B10CB1012000E0002030BD16
:10274000CA430282704700000E49086070470D4975
:10275000486070470B49886070474AF6AA200949CB
:10276000086070474CF6CC40064908607047014647
:102770000020044AD2680A4201D0012000E0002073
:10278000704700000030004010B50446BE48844247
:1027900008D101218014FEF773FE0021A014FEF77A
:1027A0006FFE16E0B948844208D101210014FEF7FB
:1027B00074FE00212014FEF770FE0AE0B448844243
:1027C00007D10121C013FEF768FE0021E013FEF7D8
:1027D00064FE10BD10B50022028802F441520B883D
:1027E0004C8823438C882343CC8823430C89234380
:1027F0004C8923438C892343CC8923431A43028089
:10280000838B4FF2FF74234083830B8A038210BDB6
:102810002DE9F04F85B005460C464FF00009022720
:102820004FF000084FF0010B0026B246A88B4FF284
:1028300040010840A88302202884B5F81C90A068B5
:10284000022801D100BF38E0A08810B94FF0010B79
:1028500001E04FF0020B8D48854200D100E000BF3F
:102860006846FEF786FDDDF800A0E088B0F5007F41
:102870000AD14FEA1A2000EB80004000A168B0FBAB
:10288000F1F0401D86B20BE04FEA4B10BAFBF0F0BE
:1028900000EB80004000A168B0FBF1F0401D86B263
:1028A0000A20B6FBF0F606F00108A6EB0800C0F31C
:1028B0004F074FF6FF7000EA0828022F01DBFF2FB9
:1028C00002DD02274FF00008E08840EA08003843A4
:1028D0002884A088A1890843618808432188084387
:1028E00040F4006040EA0909A5F81C9005B0BDE875
:1028F000F08F0021018041808180C1800181418170
:102900008181C181072101827047002101804180BE
:102910008180C1800221816000218181704721B1C5
:10292000028842F04002028004E002884FF6BF7342
:102930001A400280704721B1828B42F48062828308
:1029400004E0828B4FF6FF331A408283704730B524
:10295000002400230C110125A540ABB21AB18588D3
:102960001D43858002E085889D43858030BD1AB176
:1029700083880B43838002E083888B438380704786
:1029800081817047014688897047A1F57E42FF3AF0
:1029900004D0028842F48072028004E002884FF67C
:1029A000FF631A400280704721B1828842F004021E
:1029B000828004E082884FF6FB731A408280704761
:1029C00002884FF2FF731A40028002880A43028095
:1029D0007047018841F480510180704721B102881D
:1029E00042F40052028004E002884DF6FF731A4060
:1029F0000280704702460020012901D0108B00E0C0
:102A0000908A70470146088A7047B1F5804F04D11B
:102A1000028842F48042028004E002884BF6FF7391
:102A20001A40028070470246002013890B4201D0F1
:102A3000012000E000207047CA4302817047F0B5D2
:102A40000246002000240023002501F00F07012684
:102A5000BE40B4B20B1101269E40B3B2968806EA7E
:102A600003051689264202D00DB1012000E00020A6
:102A7000F0BD10B5002201F00F040123A3409AB26B
:102A8000D343038110BD00000030014000380040F6
:102A9000003C0040002044490860091D0860091DF1
:102AA0000860091D086041483F49143108607047BB
:102AB00000213D498279002A3AD00A46126803680B
:102AC0009A430B461A600A1D126803689A430B1D4D
:102AD0001A60027911440A6803681A430A60324A8C
:102AE0000832126803689A432F4B08331A601A1D84
:102AF000126803689A432C4B0C331A604279102AEF
:102B00000ED11A1F126803681A43274B08331A6044
:102B10001A1D126803681A43234B0C331A600DE028
:102B20002149427911440A6803681A430A6005E0A2
:102B3000027911440A6803689A430A6070470021C9
:102B4000016001710C2141710021817170471649AA
:102B5000103109680143144A103211607047014670
:102B60000020114A143212680A4201D0012000E00C
:102B7000002070470C49143108607047014600205E
:102B80000022094B1B6803EA0102074B14331B6840
:102B90000B4202D00AB1012000E000207047024938
:102BA000143108607047000000040140FFFF0F006F
:102BB00010B56FF00400FEF7C1FA2D4800682D49EA
:102BC000B0FBF1F02C4908700846007800EB40019A
:102BD000C1EBC0104FF6FF7101EAC0002749088021
:102BE00010BD0146244A12784A434FF0E0235A614F
:102BF00000229A611A46126942F001021A6100BF6E
:102C00004FF0E022106910F0010F02D010F4803F65
:102C1000F6D04FF0E022126922F001024FF0E023DB
:102C20001A6100229A6170470146144A12884A4389
:102C30004FF0E0235A6100229A611A46126942F06D
:102C400001021A6100BF4FF0E022106910F0010F7D
:102C500002D010F4803FF6D04FF0E022126922F04B
:102C600001024FF0E0231A6100229A6170470000D0
:102C70003400002000127A005E0000206000002076
:102C80007FB505460C4601210846FEF7ECFBADF882
:102C90000850ADF804400020ADF80A00ADF8060079
:102CA00001A94FF08040FEF715FF01221146900761
:102CB000FFF787FA1C208DF8000002208DF8010034
:102CC00003208DF8020001208DF803006846FEF70E
:102CD000EAF901218807FFF759FA7FBD10B50121F4
:102CE0008807FFF71CFD00287DD001218807FFF72A
:102CF00027FDFE4801680068401EFC4A106011B9BB
:102D0000012011460860FA4801880088401EF84AF0
:102D10001080012902DA012011460880F548017867
:102D20000078401CF34A1070072902DD0720114685
:102D30000870F14801780078401CEF4A10700A29A9
:102D400002DD0A2011460870EC4801880088401C0A
:102D5000EA4A1080B1F5FA7F03DD4FF4FA701146AC
:102D60000880E74801780078401CE54A1070032984
:102D700002DD032011460870E24801880088401CEB
:102D8000E04A1080B1F5967F03DD4FF4967011464E
:102D90000880DD4801780078401CDB4A1070142957
:102DA00002DD142011460870D84801780078401CD4
:102DB000D64A1070FA2902DDFA2011460870D4486C
:102DC00001880088401CD24A1080B1F57A7F03DD6B
:102DD00040F2E93011460880CE4801880088401C46
:102DE000CC4A108000E07FE147F23050814201DDA3
:102DF00011460880C8488088C0F34130012805D0BA
:102E0000C5488088C0F34130032843D1C3480068D7
:102E1000002876D1C0488088C0F3413003282AD1E9
:102E2000BF480088B0F5CA7F0FDCBD480088B0F508
:102E3000C67F0ADBBB4800885F2806DDB6484068CD
:102E400020F4C040B449486005E0B348406820F42D
:102E5000C040B1494860B2480088B0F5C57F50DC39
:102E6000AF4800880A284CDDAB48406820F4C040D9
:102E7000A949486045E0AB4801880088401CA94A40
:102E8000108069293DDDA448406820F4C040A24973
:102E9000486036E0A0488088C0F34130022830D135
:102EA0009E48006868B39E480088B0F5CB7F15DB6C
:102EB0009C4800885F2811DD9748406820F48060B6
:102EC00000F58060944948600846406820F4C0409E
:102ED0004860002093490880914908809048018803
:102EE0000088401C8E4A1080B1F5CB7F03DA8D48F4
:102EF00000885F2805DA8848406820F4C040864989
:102F0000486085488088C0F3413050B982484068A5
:102F100020F4C040804948600020824908808049F0
:102F200008807D480068C0F3007060B37E48806808
:102F300010F0080F37D07D4801780078401C7B4A9C
:102F40001070032938DD7448006820F0807000F1AB
:102F50008070714908600846006820F08050086061
:102F600073480068C0F3407070B1724801880088EF
:102F7000401C704A10807048008881421CDD6E48F9
:102F800000881146088017E06A4801880088401CC4
:102F9000684A10806848008881420DDD66480088D4
:102FA0001146088008E00020604908705A4800680F
:102FB00020F080505849086060480078C82802DB3B
:102FC000C8205E4908705E4801880088401C5C4A41
:102FD00010805C480088814203DB5A480088114613
:102FE000088059480078F0B1584801880088401C92
:102FF000564A1080052916DD5348007802280DDD59
:103000004548006820F0005000F100504249086037
:1030100000204D4908701146088004E000204A490C
:1030200008704A4908804A4801880088401C484A7C
:10303000108048480088814203DB464800881146DA
:103040000880454801780078401C434A1070642984
:103050004ADD002011460870404801880088401C65
:103060003E4A10803E480068814203D93C480088AF
:10307000114608802E480068C0F34070A8B12D4862
:1030800001880088401C2B4A10802B480088814210
:1030900020DD0020114608801F48006820F0804095
:1030A00000F180401C49086014E022480188008833
:1030B000401C204A10802B48008881420ADD0020F5
:1030C000114608801448006820F0804000F18040DC
:1030D000114908601A4801880088401C184A10806D
:1030E0001848008881423FE072E000006400002040
:1030F0006C000020AC000020F40000200000002044
:103100007E00002002000020880000200400002033
:1031100026010020AE000020240000200081214272
:103120007000002072000020001001406E0000209E
:103130002C000020DC000020CA0000200500002038
:10314000E0000020DE0000200C0100200A01002029
:103150000E010020100100206F000020D800002088
:10316000D0000020CC00002003DB1A480088114664
:103170000880194801780078401C174A1070C82947
:1031800002DDC82011460870144801880088401CE0
:10319000124A108012480088814203DD10480088DE
:1031A000114608800F4801780078401C0D4A1070C5
:1031B0000A2902DD0B20114608700B4801780078BF
:1031C000401C094A10700A2902DD0A2011460870C5
:1031D00010BD0000DE000020E8000020DA00002022
:1031E000D4000020EC0000204800002070B5054607
:1031F0000C4645F25550FFF7A7FA2846FFF7A7FA05
:103200002046FFF7A7FAFFF7A8FAFFF7ABFA70BD61
:103210004AF6AA20014908607047000000300040CB
:1032200070B50546002405E0601CC4B2C82C01DD61
:10323000002070BD02213948FFF7F5FB0028F3D0CC
:1032400029463648FFF79CFB002405E0601CC4B209
:10325000C82C01DD0020ECE701213048FFF7E3FB3B
:103260000028F3D02D48FFF78DFBC0B2E1E700B591
:1032700087B001210420FEF7E9F801210803FEF7D9
:10328000E5F8E020ADF8180018208DF81B000320A9
:103290008DF81A0006A92248FDF7B4FDE021204868
:1032A000FDF75BFE0020ADF804004FF48270ADF82E
:1032B00006000020ADF808000220ADF80A00012049
:1032C000ADF80C004002ADF80E001020ADF8100073
:1032D0000020ADF812000720ADF8140001A90F4836
:1032E000FFF778FA01210D48FFF719FBFF20FFF7E0
:1032F00097FF07B000BD10B50446084800884FF698
:10330000C7710840054908800846008820430880A6
:1033100001210248FFF703FB10BD0000003001400F
:103320000008014010B500240020FE4908604FF05D
:103330009000FFF775FF0020FFF772FF0020FFF7F6
:103340006FFF0020FFF76CFFFF20FFF769FF44EAE3
:103350000024FF20FFF764FF04430120F249C1F875
:103360009001204610BD08B501210420FEF76EF83B
:1033700003208DF802001020ADF800008DF8030046
:103380006946EA48FDF73EFD0120E6490860FFF77F
:103390006EFF0820FFF7AFFFFFF7C4FFE449088086
:1033A00008BD10B500240020DE4908604FF005007C
:1033B000FFF736FFFF20FFF733FF04460120DA490D
:1033C000C1F89001204610BD10B504460020D54933
:1033D00008604FF00100FFF723FF2046FFF720FFB2
:1033E0000120D149C1F8900110BD10B50020CD4990
:1033F00008604FF00600FFF713FF0120CA49C1F82B
:10340000900110BD10B50020C64908604FF00400BF
:10341000FFF706FF0120C449C1F8900110BD2DE956
:10342000F04106460C4617460020BE4908604FF0A2
:103430000300FFF7F5FEC4F30740FFF7F1FEC4F306
:103440000720FFF7EDFEE0B2FFF7EAFE002505E0FA
:10345000FF20FFF7E5FE7055681C85B2BD42F7DB23
:103460000120B0490860BDE8F08110B501E0FFF728
:10347000CFFEFFF796FF10F0010FF8D110BD2DE938
:10348000F04106460C461746FFF7AFFF0020A5495E
:1034900008604FF00200FFF7C3FEC4F30740FFF7D8
:1034A000BFFEC4F30720FFF7BBFEE0B2FFF7B8FE94
:1034B000002504E0705DFFF7B3FE681C85B2BD42D5
:1034C000F8DB012097490860FFF7CFFFBDE8F081E6
:1034D0002DE9F04107460E461446F0B2C0F580755E
:1034E000AC4200DC254612E02A4631463846FFF75A
:1034F000C6FFAC4200D10BE02F442E44601B84B2C7
:10350000B4F5807F02DD4FF4807500E02546EBE7DF
:1035100000BFBDE8F08110B504462403FFF765FF46
:10352000FFF7A3FF00207F4908604FF02000FFF75E
:1035300077FEC4F30740FFF773FEC4F30720FFF7DD
:103540006FFEE0B2FFF76CFE01207749C1F89001F1
:10355000FFF78BFF10BD2DE9F04781460F46164659
:103560004FEA1738C7F30B0ACAF58054A64200DCAD
:10357000344644E04FEA08314FF480526D48FFF77B
:103580004EFF002508E00AEB05006A49085CFF28A9
:1035900000D003E0681C85B2A542F4DB00BFA54261
:1035A00016DA4046FFF7B7FF002507E019F80500D7
:1035B00005EB0A015F4A5054681C85B2A542F5DB51
:1035C0004FEA08314FF480525A48FFF781FF04E078
:1035D000224639464846FFF77BFFA64200D10FE05E
:1035E00008F101084FF0000AA1442744301B86B2BD
:1035F000B6F5805F02DD4FF4805400E03446B9E751
:1036000000BFBDE8F08710B5FFF7EFFEFFF72DFF15
:103610000020444908604FF0C700FFF701FE012079
:103620004149C1F89001FFF720FF10BD10B50020FF
:103630003C4908604FF0B900FFF7F2FD01203A491C
:10364000C1F890010320FFF7CCFA10BD10B500209F
:10365000344908604FF0AB00FFF7E2FD012032492A
:10366000C1F890010320FFF7BCFA10BD2DE9F0412D
:1036700006460F461546002414212F4806F01FFD6C
:1036800000202E4908702A4639463046FFF763FF6E
:103690002A4639462848FFF7C2FE00BF07E0264801
:1036A000005D315D884200D004E0601CC4B2681E39
:1036B000A042F4DC00BFAC421EDA14211E4806F022
:1036C000FEFC2A4639463046FFF745FF2A46394672
:1036D0001948FFF7A4FE00240AE01748005D315D99
:1036E000884203D088201549087004E0601CC4B2E9
:1036F000681EA042F1DC00BFBDE8F0812DE9F04179
:1037000006460F461546002414210B4806F0D7FC48
:1037100000200A4908702A4639463046FFF77FFEE6
:103720002A460DE09001214200002142000801409C
:10373000760000204C0100204C1100207400002075
:1037400039463748FFF76BFE00BF07E03448005D9D
:10375000315D884200D004E0601CC4B2681EA04203
:10376000F4DC00BFAC421EDA14212D4806F0A7FCA1
:103770002A4639463046FFF752FE2A46394628483F
:10378000FFF74DFE00240AE02548005D315D8842C8
:1037900003D0AA202349087004E0601CC4B2681E4C
:1037A000A042F1DC00BFBDE8F08110B5022200218B
:1037B0001D48FFF7A3FF1C480078AA2804D11A4827
:1037C0004078552800D110BD022200211748FFF78C
:1037D0004DFF022200211448FFF790FF12480078A5
:1037E000AA2804D110484078552800D1EBE70222DE
:1037F00000210E48FFF73AFF022200210A48FFF796
:103800007DFF09480078AA2804D107484078552848
:1038100000D1D8E7142106A001F08DFA00BFFEE721
:103820004C11002074000020780000207CA20008C9
:1038300053504920464C415348204552524F522E36
:103840002E2E0D0A0000000010B586B0044601219E
:1038500044F20400FDF7FAFDF748FDF763FE4FF46C
:103860000070ADF8140003208DF8160018208DF8B4
:10387000170005A9F148FDF7C5FA4FF48060ADF8CF
:10388000140004208DF8170005A9EC48FDF7BAFADA
:1038900025208DF8000003208DF801008DF802002E
:1038A00001208DF803006846FDF7FDFB0194002020
:1038B000ADF80800ADF80A00ADF80C00ADF8100046
:1038C0000C20ADF80E0001A9DB48FDF76EFE0122C9
:1038D00040F22551D848FDF700FF0121D648FDF7F9
:1038E000F0FE06B010BD10B586B0044601210420DC
:1038F000FDF7ACFD01214804FDF7B5FDD048FDF70B
:1039000011FE0420ADF8140003208DF816001820D5
:103910008DF8170005A9C948FDF774FA0820ADF81D
:10392000140004208DF8170005A9C448FDF76AFAB1
:1039300026208DF8000003208DF801008DF802008C
:1039400001208DF803006846FDF7ADFB01940020CF
:10395000ADF80800ADF80A00ADF80C00ADF81000A5
:103960000C20ADF80E0001A9B548FDF71EFE01229E
:1039700040F22551B248FDF7B0FE0121B048FDF7F5
:10398000A0FE06B010BD10B586B004460121082087
:10399000FDF75CFD01218804FDF765FDA948FDF7F1
:1039A000C1FD4FF48060ADF8140003208DF81600BF
:1039B00018208DF8170005A9A348FDF723FA4FF446
:1039C0000060ADF8140004208DF8170005A99E488A
:1039D000FDF718FA27208DF8000001208DF801006E
:1039E00003208DF8020001208DF803006846FDF7E2
:1039F0005AFB01940020ADF80800ADF80A00ADF8BC
:103A00000C00ADF810000C20ADF80E0001A98D4897
:103A1000FDF7CBFD012240F225518A48FDF75DFEFE
:103A200001218848FDF74DFE06B010BD70B540F28B
:103A300025518148FDF736FF00287DD07E48FDF7EF
:103A4000B1FEC6B281480078022807DB80480178C1
:103A5000804806F034FB00207D49087000207B4937
:103A600008707B4801780078401C794A10707948CA
:103A7000465479480068C0F34050E8B910460078D1
:103A8000022859DB7348007855280CD171484078DA
:103A9000AA2808D17048006820F4001000F5001032
:103AA0006D49086070BD6A4801786A4806F007FBF6
:103AB000002067490870F5E765480078042807D1B9
:103AC0006448C0786349897840EA012063490870F6
:103AD0005F48017861480078001D81422CD10025A3
:103AE000002406E0A01C5B49085C2844C5B2601CA9
:103AF000C4B257480078C01EA042F3DC5448007896
:103B0000401E5449085CA84272D108460079C22878
:103B100036D1002426E0524840885149098888421D
:103B200002DD00204E4948804D484088401C4C49E9
:103B30004880601D474900E063E00A5C484881888E
:103B40008088401C464B988018468068425418462E
:103B5000808819460988884202DB0020194688803F
:103B6000601CC4B23D480078801EA042D3DC3A48B5
:103B7000406820F4004000F500403749486091E774
:103B80003221384806F09BFA3148027831493548ED
:103B900006F01EFA2E4801782E4806F090FA002012
:103BA0002B4908702F480079C4280AD12A48006898
:103BB00020F4000000F500002749086004F088FDAB
:103BC0001FE0284800797F2808D12348006820F0AA
:103BD000807000F180702049086012E01E48006883
:103BE00020F4800000F580001B49086009E0FFE731
:103BF00017480178174806F062FA00201449087047
:103C000050E740F227710C48FDF74CFE80B3164890
:103C1000007801282DDB1548006800780649091D49
:103C2000088012480068401C104908600E4800785F
:103C3000401E0D49087023E0003801400008014093
:103C40000044004000480040000C01407E0000207D
:103C50007C000020601100202C0000207D0000204E
:103C600074270020061200208B0000209000002006
:103C700006E0002240F22771FB48FDF72EFD11E718
:103C800000BF0FE710B5F948006820F00400001DE0
:103C9000F64908600846006820F0020008600846FF
:103CA000006820F008000860F1480178F14806F04B
:103CB00006FA0020EE490870EC48006820F0010088
:103CC000EA4908600846006820F0020008601421F4
:103CD000E94806F0F4F910BD2DE9F0418EB000205E
:103CE0000B90282101A806F00CFA002000908046D5
:103CF00000240027DD480078C0F3400018B90020F8
:103D00000EB0BDE8F081D9480078C0F3400000282B
:103D100077D0D84D00200C9000BF2C21284606F00B
:103D20000DF90646701BC0B20D909DF830000128B9
:103D300055D19DF8340003284DDB9DF834000A2846
:103D400049DC9DF83400062841DB002400272821A7
:103D500001A806F0D6F928680190A888ADF80800F7
:103D60009DF8050000F00F009DF8041001F00F0110
:103D700001EB810100EB41000830182190FBF1F2CA
:103D800001FB1200C4B20A2094FBF0F0C7B207EBAB
:103D90008700A4EB4000C4B244EA0710B649487457
:103DA0009DF8060000F00F019DF8070061F31F1059
:103DB000B14988749DF8080000F00F019DF80900D2
:103DC00061F31F10AC49C8744FF00008D9E1FFF748
:103DD00059FF002094E7FFF755FF002090E79DF87A
:103DE0003000022817D128780B909DF82C00562817
:103DF00008D1FFF747FF4021A048FDF7B0F80020A9
:103E00007EE7DCE19DF82C004128DFD140219B4872
:103E1000FDF7A3F8B5E19DF8300003286BD19DF8BC
:103E20003400092863D100200090282101A806F061
:103E300068F99DF83420294601A806F0C9F89DF8D4
:103E4000050000F00F009DF8041001F00F0101EBD8
:103E5000810100EB410000909DF8060000F00F008A
:103E6000874948439DF8071001F00F0140F635429D
:103E7000514300EB41119DF8090000F00F0040F2A2
:103E80007122504301EB00109DF80A1001F00F0160
:103E900001EB4102C2EBC11100EBC1009DF80B1018
:103EA00001F00F0101EBC10202EB011100EB8100F7
:103EB0009DF80C1001F00F0101EB810100EB4100B6
:103EC000062190FBF1F143F609520098504301EBB3
:103ED000801000900098000E674908700098000C50
:103EE00048700098000A88700098C87049E1FFF790
:103EF000C9FE002004E79DF83000052873D19DF825
:103F000034000A286AD100200090282101A806F078
:103F1000F8F89DF83420294601A806F059F89DF8D4
:103F2000040000F00F00642148439DF8051001F0E3
:103F30000F0101EB810100EB41009DF8061001F03B
:103F40000F01084400909DF8070000F00F004C4955
:103F500048439DF8081001F00F0140F635425143E7
:103F600000EB41119DF80A0000F00F0040F27122B1
:103F7000504301EB00109DF80B1001F00F0101EB15
:103F80004102C2EBC11100EBC1019DF80C0000F031
:103F90000F0000EBC00202EB001001EB80009DF867
:103FA0000D1001F00F0101EB810100EB4100062132
:103FB00090FBF1F143F609520098504301EB801059
:103FC00000900098000E2C4908710098000C487170
:103FD0000098000A88710098C871D2E0FFF752FE7D
:103FE00000208DE6FFE79DF8300007284ED19DF8B0
:103FF0003400002846DD002400200090282101A87C
:1040000006F07FF89DF83420294601A805F0E0FF6E
:1040100015E005F08BFF006801A9095D405C2028D0
:104020000BD1009800EB80004000009001A8005DDB
:1040300000F00F00009908440090601CC4B29DF885
:1040400034008442E5DB40F23C710098484342F280
:104050001071B0FBF1F000900098000A06498872D8
:104060000098C8728DE00000003801402400002054
:104070007F00002038120020C01B002000100140EB
:1040800040420F00FFF7FEFD002039E69DF83000AA
:1040900008283AD19DF83400032832DD9DF8340019
:1040A00007282EDA002400200090282101A806F01D
:1040B00028F89DF83420294601A805F089FF15E06D
:1040C00005F034FF006801A9095D405C20280BD190
:1040D000009800EB80004000009001A8005D00F017
:1040E0000F00009908440090601CC4B201A8005D54
:1040F0002E28E5D10098000AFD49087300984873FE
:104100003FE0FFF7BFFD0020FAE59DF830000928E9
:1041100037D19DF8340003282EDB9DF834000628A3
:104120002ADC282101A805F0ECFF9DF8342029465F
:1041300001A805F04DFF9DF8080000F00F019DF863
:10414000090061F31F10EA4988739DF8060000F02A
:104150000F019DF8070061F31F10E549C8739DF832
:10416000040000F00F019DF8050061F31F10E04905
:1041700008744FF0000803E0FFF784FD0020BFE55E
:1041800006E0751C9DF83000401CC0B20C90C4E5E0
:1041900000BF00200C900CE0D5489DF83010405C2A
:1041A000D4499DF8302088549DF83000401CC0B29E
:1041B0000C909DF830001428EEDB0120A0E50020D3
:1041C0009EE510B540F22551CB48FDF76BFB00286A
:1041D0003DD0C948FDF7E6FAC4B2C8480178007876
:1041E000401CC64A1070C6484454C648007810F0B7
:1041F000010F50D1C3480078C0F3400000284AD1D5
:10420000BF480078242832D11046007806281EDBEB
:10421000BB48007824281BD1B9484078472817D1DB
:10422000B7488078502813D1B548C07852280FD1AC
:10423000B34800794D280BD1B1484079432807D1C4
:10424000B048006820F00100401CAE49086099E0C9
:10425000AA480178AA4805F032FF0020A749087053
:10426000A848006820F00100A649086010BDA348D6
:104270000178A34805F023FF0020A0490870A14859
:10428000006820F001009F4908600846006820F09F
:1042900002000860EAE79A480078242872D197481B
:1042A0000078401E9649085C0A286BD10846807C3D
:1042B00041280DD19348006820F00200801C9149EC
:1042C00008600020904908700120904908601FE0B4
:1042D0008A4801788A4805F0F2FE00208749087074
:1042E0008848006820F00100864908600846006898
:1042F00020F00200086084480078401CC0B2824967
:104300000870042803DD0020087080490860ADE7CC
:104310007C480078C0F3400000B3FFF7DDFCF0B14B
:104320007848006820F00800083076490860734833
:104330000178734805F0C3FE002070490870714889
:10434000006820F001006F4908600846006820F00E
:10435000020008601421664805F0B1FE12E06748CB
:104360000178674805F0ABFE002064490870654895
:10437000006820F00100634908600846006820F0EA
:104380000200086040F227715B48FDF78BFAD8B154
:104390005F480078012810DB5E48006800785649C5
:1043A000091D08805B480068401C5A49086058484D
:1043B0000078401E5649087006E0002240F227713E
:1043C0004D48FDF78AF951E700BF4FE72DE9F0416D
:1043D000002440F225515048FDF764FA00287DD0B2
:1043E0004D48FDF7DFF9C6B24C4800780A2809DBD2
:1043F00000204A4908708C21494805F060FE0020E1
:1044000048490880002045490870464801880088CE
:10441000401C444A1080424846543A480078C0F351
:104420000010E8B93E480078252823D110460088BE
:1044300014281FDB3CA13A4805F08AFD3849884220
:1044400018D13048006820F0200020302D49086045
:104450008C21334805F033FE00203249088009E002
:104460002848006820F040004030264908600020BD
:104470003349087023480078C0F3C01028B94B2E88
:1044800003D128480088022805DC1E480088C0F3B4
:104490000020002874D02348008802280EDD21481F
:1044A0000088801E1E49085C4F2807D11548006807
:1044B00020F4807000F5807012490860114800886F
:1044C000C0F30020F0B317480088801E1449085C30
:1044D0000D2855D113480088401E00E0D6E3085C43
:1044E0000A284DD10748006820F4807005492AE069
:1044F000C01B0020D41B0020004400407F0000208F
:1045000038120020240000208E0000209801224252
:104510008C0000209400002000480040880000200B
:1045200092120020820000202525252525252525FD
:1045300025252525252525252525252500000000BF
:10454000AC0000201CE008600846006820F08000F5
:10455000803008608C21FD4805F0B1FDFC480288E0
:10456000FC49FA4805F034FDF9480088FA4908800A
:10457000F7480188F74805F0A2FD0020F4490880BB
:10458000F6480088C0F3C030F8B1F1480088072829
:104590001BDDEF480088801EEE49085C0D2814D111
:1045A000EB480088401E085C0A280ED1ECA1E948BF
:1045B00005F0CEFC08B1BDE8F081E5480188E5488A
:1045C00005F07DFD0020E2490880E4480088C0F342
:1045D000402060BBDF488079572843D1DC48008801
:1045E000801EDC49085C0D283CD1D9480088401E5B
:1045F000085C0A2836D1084680785E2832D1084601
:10460000C07853282ED10846007949282AD1084677
:104610004079532826D1CE4800880E2808DCCC48A3
:104620000188CC4805F04BFD0020C949088019E0FD
:10463000CA48006820F4007000F50070C74908609F
:104640008C21C24805F03BFDC1480288C149BF48E2
:1046500005F0BEFCBE480188BE4805F030FD0020D4
:10466000BB490880BD480088C0F3802000287DD168
:10467000B84880795228FAD1B5480088801EB549DB
:10468000085C0D28F3D1B2480088401E085C0A2857
:10469000EDD1084680785E28E9D10846C0785328D5
:1046A000E5D1084600794928E1D1084640795328E8
:1046B000DDD10846C0793A28D9D100240020AA4982
:1046C0000880AAA1A34805F043FC40B1A3480068B4
:1046D00020F4403000F58030A04908606BE7A7A1C6
:1046E0009C4805F035FC78B18C219A4805F0E7FC30
:1046F0000020974908809948006820F4403000F570
:1047000040309649086056E72AE084B904F10B006E
:104710009049085C302821DB04F10B00085C392843
:104720001CDC0846C07A30388F49088016E004F156
:104730000B008849085C302810DB04F10B00085C92
:1047400039280BDC04F10B00085C303886490988F5
:1047500001EB810100EB410083490880601CC4B279
:1047600004F10B007B49085C0D2800E053E004D005
:1047700004F10C00085C0A28C7D17B48008812307D
:1047800073490988884200DB15E7714802887E2159
:10479000704805F013FC054673480288521C7E21C0
:1047A000681C05F00BFC0746781B401C6E49098805
:1047B000884207D08C21674805F081FC00206449BD
:1047C0000880F8E665480068C0F3014002281AD066
:1047D0008C216E4805F073FC6348028829466B48BB
:1047E00005F0F6FB5A4801885A4805F068FC00209D
:1047F000574908805948006820F4403000F50030DF
:104800005649086007E052480188524805F057FCB5
:1048100000204F49088051480088C0F3C02028B9C3
:10482000472E03D14A480088052809DC4B480088F8
:10483000C0F30030002816D045480088132812DD48
:1048400046480088C0F3003070B951A1414805F0D6
:104850007FFB002807D04148006820F4805000F515
:1048600080503E490860B0E039480088801E3949D0
:10487000085C0D2869D136480088401E085C0A286B
:1048800063D145A1334805F063FBE0B30020444900
:10489000087044A12F48083005F05AFB074643A191
:1048A000384605F055FB054640A1681C05F050FB55
:1048B0000746781B401E3A490870084600780528CC
:1048C00003DB084600780F2807DD8C21214805F01E
:1048D000F6FB00201E4908806DE62048006820F4A1
:1048E00080501E4908600846006820F4006000F50A
:1048F000006008600F212E4805F0E1FB284802788F
:10490000691C2B4800E00AE005F062FB10480188B2
:10491000104805F0D4FB00200D4908800DE00C483C
:1049200001880C4805F0CBFB0020094908800B48A2
:10493000006820F480500949086005480088322842
:1049400043DD03480188034834E03EE0DE160020E2
:104950008200002092120020860000202400002007
:104960002B434F50533A0000BA0000200D0A5E530B
:104970004953523A20302C300D0A00000D0A5E5384
:104980004953523A20302C310D0A0000DB1C002024
:1049900052494E47000000002B434C49503A00005A
:1049A000BC0000202B434C495000000022000000B6
:1049B0002721002005F083FB0020F7490880F748F5
:1049C000006820F48050F5490860F4480088C0F37E
:1049D000403050B3F0480088062826DDEE480088B5
:1049E000801EEF49085C0D281FD1EB480088401E4F
:1049F000085C0A2819D1EBA1E94805F0A9FAA0B191
:104A0000E648006820F40050E44908600846006861
:104A100020F4804000F580400860DF480188E048CD
:104A200005F04DFB0020DC490880DC480079C0F32C
:104A3000800000287DD0D8480088082879DDD64835
:104A40000088801ED649085C0D2872D1D2480088A3
:104A5000401E085C0A287ED1D4A1D14805F078FA1E
:104A600030B1CE48406820F008000830CB4948609B
:104A7000D0A1CB4805F06CFA30B1C848406820F0AE
:104A800020002030C5494860CCA1C54805F060FA37
:104A900030B1C248406820F00200801CBF49486025
:104AA000C0A1BF4805F054FAD8B3BC48006820F054
:104AB000004000F10040B9490860BAA1B84805F0CB
:104AC00047FA0546BFA1284605F042FA05460024EC
:104AD00023E06CB9681C005D30281CDB681C005D9D
:104AE000392818DC681C005D3038B749088012E0AE
:104AF000681C005D30280EDB681C005D39280ADC6C
:104B0000681C005D3038B049098801EB810100EB79
:104B10004100AD490880601CC4B2681C005D2C28AF
:104B2000D7D1AAA19E4805F013FA40B19B4840682E
:104B300000E010E020F00100401C98494860A3A16B
:104B4000974805F005FA30B19448406820F080009D
:104B500080309249486091488088C0F3402028B353
:104B60008D480088292821DD8B480088801E8C49CB
:104B7000085C0D281AD188480088401E085C0A2865
:104B800014D195A1864805F0E3F978B183484068CF
:104B900020F40070814948607F480288804990482D
:104BA00005F016FA7C4800788E4908707B488088AA
:104BB000C0F3C020F0B37848008806285ADD764854
:104BC0000088801E7649085C0D2853D17248008801
:104BD000401E085C0A284DD170488088C0F3003020
:104BE00090B16E48406820F400606C4948606A48A3
:104BF0000078801E7B49087067480088821E6849DB
:104C0000774805F0E5F9D6E477A1654805F0A0F905
:104C100080B177A1624805F09BF990B15F48406888
:104C200020F4805000F580505C4948605A48018863
:104C30005B4800E01EE005F042FA0020564908807B
:104C4000B9E46FA1564805F083F998B1534840681C
:104C500020F48050514948600846406820F40060C4
:104C600048604D4801884E4805F029FA00204A491D
:104C70000880A0E4484800888C2807DD8C2148483B
:104C800005F01DFA00204449088094E440F22771A1
:104C90005E48FCF707FED8B15D480078012810DBBC
:104CA0005C48006800785949091D08805948006827
:104CB000401C5849086056480078401E5449087006
:104CC00006E0002240F227715048FCF706FD72E42E
:104CD00000BF70E470B504460D464F4805704F485C
:104CE00004604D48007801281CDB4B480078401ECA
:104CF00049490870012240F227714948FCF7EDFC50
:104D000000BF4748008810F0400FFAD043480068C1
:104D100000784349091D088040480068401C3F490D
:104D2000086006E0002240F227713D48FCF7D5FC00
:104D300070BD00BFFCE770B504460D4639480570EC
:104D4000394804603748007801281CDB3548007872
:104D5000401E34490870012240F227713348FCF7A5
:104D6000BCFC00BF3148008810F0400FFAD02E483C
:104D7000006800782D49091D08802B480068401CF8
:104D80002949086006E0002240F227712748FCF715
:104D9000A4FC70BD00BFFCE78200002024000020BE
:104DA000921200205E43454E443A00005E4F524945
:104DB000473A00005E434F4E463A00005E434F4E76
:104DC0004E3A00002C000000EA0000204E4F204325
:104DD00041525249455200002B43504D533A000076
:104DE0002A1B0020840000202B434D47523A00002C
:104DF0002252454320554E524541442200000000B6
:104E000022524543205245414422000000480040C0
:104E10008D000020980000208B00002090000020D2
:104E2000003801408C000020940000200044004025
:104E300070B504460D465B4805705B4804605948F0
:104E4000007801281CDB57480078401E554908703F
:104E5000012240F227715548FCF73FFC00BF534840
:104E6000008810F0400FFAD04F48006800784F4992
:104E7000091D08804C480068401C4B49086006E04A
:104E8000002240F227714948FCF727FC70BD00BFA3
:104E9000FCE72DE9F0410022002700230024002533
:104EA0000026DFF80CC1B0FBFCFC0CF0FF0242F264
:104EB000107CB0FBFCFC02EB8208ACEB480C0CF065
:104EC000FF074FF47A7CB0FBFCFC42F21078B0FB99
:104ED000F8F808EB8808ACEB480C0CF0FF034FF037
:104EE000640CB0FBFCFC4FF47A78B0FBF8F808EBEC
:104EF0008808ACEB480C0CF0FF044FF00A0CB0FB38
:104F0000FCFC4FF06408B0FBF8F808EB8808ACEB49
:104F1000480C0CF0FF054FF00A0CB0FBFCFC0CEB4E
:104F20008C0CA0EB4C0C0CF0FF0647EA021C81F83D
:104F300000C044EA031C81F801C046EA051C81F860
:104F400002C0BDE8F08110B56420FBF773F91921A8
:104F500018A0FFF7F0FE6420FBF76CF919211CA0E4
:104F6000FFF7E9FE6420FBF765F919211FA0FFF7A1
:104F7000E2FE6420FBF75EF9192123A0FFF7DBFEB8
:104F80006420FBF757F9192126A0FFF7D4FE64200F
:104F9000FBF750F919212AA0FFF7CDFE6420FBF79B
:104FA00049F910BD8D000020980000200048004005
:104FB000A086010024505352463130332C30302C1F
:104FC00030302C30302C30312A32340D0A000000C1
:104FD00024505352463130332C30312C30302C3069
:104FE000302C30312A32350D0A0000002450535243
:104FF000463130332C30322C30302C30302C3031A4
:105000002A32360D0A000000245053524631303304
:105010002C30332C30302C30302C30312A32370DBC
:105020000A00000024505352463130332C30352CC6
:1050300030302C30302C30312A32310D0A00000053
:1050400024505352463130332C30362C30302C30F3
:10505000302C30312A32320D0A00000070B586B093
:1050600000260020049005900390002400900190F9
:105070000290FCA1FE4804F06BFFFD4988425FD11D
:105080000846407A2A2828D10F248DF80C400122A6
:10509000602103A8FEF7EAFA22466121F4480A30AB
:1050A000FEF7E4FAF3480178F148FFF744FE0521E2
:1050B000F1A0FFF740FE0122C42103A8FEF71EFB6A
:1050C0009DF80C0055283BD1FF208DF80C000122E3
:1050D000C42103A8FEF7CAFA32E0E548407A3F2827
:1050E0002AD10122602103A8FEF708FB9DF80C409D
:1050F0000F2C0DDD1221E2A0FFF71DFE40F24C4106
:10510000DB4804F0DCFF0020DA49088006B070BDFF
:105110002A20D749487222466121D5480A30FEF735
:10512000EDFA04F10A00C1B2D148FFF704FE0521EF
:10513000D8A0FFF700FE03E00F21D8A0FFF7FBFD8A
:10514000DAA1CB4804F004FFC949884261D108467E
:10515000807A2A282AD1C74800780B38C4B20CB10B
:105160000F2C0CDB40F24C41C14804F0A8FF00209A
:10517000C04908800F21C9A0FFF7DDFDC6E78DF803
:105180000C400122502103A8FEF770FA224652215A
:10519000B7480B30FEF76AFAB6480178B448FFF713
:1051A000CAFD0521BBA0FFF7C6FD32E0B048807AFA
:1051B0003F282AD10122502103A8FEF79FFA9DF82B
:1051C0000C400CB10F2C0CDB40F24C41A84804F011
:1051D00076FF0020A74908801321B7A0FFF7ABFD99
:1051E00094E72A20A249887222465221A0480B3017
:1051F000FEF784FA04F10B00C1B29D48FFF79BFD56
:105200000521A4A0FFF797FD03E00F21A3A0FFF75E
:1052100092FDAEA1964804F09BFE954988427CD150
:105220000846407B2A2832D1924800780E38C4B212
:105230000CB10F2C0CDB40F24C418D4804F03FFFC9
:1052400000208C4908800F2194A0FFF774FD5DE7D2
:10525000302000EB14108DF80C0004F00F003030FB
:105260008DF80D000222702103A8FEF7FFF92246F7
:1052700072217F480E30FEF7F9F97E4801787C48AC
:10528000FFF759FD052183A0FFF755FD45E078485C
:10529000407B3F283DD10222702103A8FEF72EFA61
:1052A0009DF80C003038C0B28DF80C009DF80D0050
:1052B0003038C0B28DF80D009DF80D009DF80C102F
:1052C00001EB810100EB4100C4B20CB10F2C0CDBEF
:1052D00040F24C41664804F0F2FE00206549088027
:1052E00016217EA0FFF727FD10E72A2060494873AA
:1052F000224672215E480E30FEF700FA04F10F00DC
:10530000C1B25B48FFF717FD052162A0FFF713FD4F
:1053100003E00F2161A0FFF70EFD76A1544804F0D1
:1053200017FE534988427CD10846407A2A2879D111
:10533000504800780A38C4B20C2C11DA002504E079
:1053400000200DF80500681CC5B2C4F10C00A8428D
:10535000F6DC0DEB0500224645490A3104F038FE23
:105360000624002C07DD092C05DC04F13000C0B256
:105370008DF80C0004E004F13700C0B28DF80C0089
:105380000122E02103A8FEF771F90025002631E093
:105390002846691CCDB21DF80000392806DC2846D5
:1053A000691ECDB21DF80000392801DD552008E046
:1053B0002846691CCDB21DF800101DF8050061F3E8
:1053C0001F10C0B20DF80600701E1DF80000552811
:1053D0000CD112214AA0FFF7AEFC40F24C41244808
:1053E00004F06DFE0020234908808FE6681CC5B2DA
:1053F000701CC6B2B5EB440FCADB2246E1216846F9
:10540000FEF734F91B4801781948FFF794FC052191
:1054100020A0FFF790FC0122C42103A8FEF76EF93B
:1054200001E00CE00CE09DF80C00552807D1FF20AE
:105430008DF80C000122C42103A8FEF717F9DDE066
:105440000B48407A3F2865D10122E02103A8FEF7EE
:1054500055F99DF80C00302862DD9DF80C003928C4
:105460005EDC58E04648544D41494E49500000002A
:1054700092120020820000204F4B0D0A0000000015
:105480004648544D41494E4950204552524F520DC5
:105490000A000000204F4B0D0A000000434F4D4D05
:1054A000414E44204552524F522100004648545527
:1054B0004450504F52540000464854554450504FA9
:1054C0005254204552524F520D0A00004648545340
:1054D00045544D41494E41504E00000046485453FA
:1054E00045544D41494E41504E204552524F520D68
:1054F0000A0000004648545345544D4944000000FA
:105500004648545345544D4944204552524F520D3C
:105510000A0000006DE09DF80C003038C4B21AE0BB
:105520009DF80C00412808DB9DF80C00462804DC9F
:105530009DF80C003738C4B20DE01221AFF24000E4
:10554000FFF7F9FB40F24C415A4804F0B8FD002047
:1055500059490880DAE52A20564948722246E12155
:1055600054481730FEF7CAF80025002632E005F14E
:1055700017005049085C302101EB20123046711CA5
:10558000CEB20A304B490A5405F11700085C00F00E
:105590000F00303006F10A01464A505408461146C1
:1055A000085C392804DC06F10900085C39280DDDA7
:1055B0001221AFF2B400FFF7BEFB40F24C413D4870
:1055C00004F07DFD00203C4908809FE5681CC5B2C1
:1055D000701CC6B2A542CADB0A2000EB4400C1B26F
:1055E0003448FFF7A8FB0521AFF25810FFF7A3FBE3
:1055F00004E00F21AFF25C10FFF79DFB2FA12D48B7
:1056000004F0A6FC2B49884205D10E212FA0FFF7FC
:1056100092FBFAF703FE31A1264804F099FC2549D4
:10562000884203D10A213048FFF785FB00BF6DE5B2
:1056300010B540F2EA302D4908800EE0FDF7E8FD94
:105640002B480078C0F3401038B12948006820F09A
:10565000100010302649086003E024480088022822
:10566000ECDC00BF22480078C0F3001000B3252115
:1056700020A0FFF760FB00202849088012E0FDF71A
:10568000C7FD1B480078C0F3801058B1244800784B
:10569000072807D1FFF7E2FC1548006820F040001A
:1056A000134908601D48008847F230518842E6DB04
:1056B00010BD000092120020820000204648545283
:1056C00045534554484F53542A000000464854520D
:1056D00045534554204F4B0D0A0000004648545A8C
:1056E000445A543F000000009C0000206C00002041
:1056F00024000020696E206465627567206D6F6408
:10570000656C21706C6561736520707265737320C0
:10571000636F6D6D616E640D0A000000AE000020C5
:10572000AC00002070B50446FDF772FD00250BE0CB
:105730000020F949087000BFF74800780A28FBDB11
:10574000FDF766FD681CC5B2A542F1DB70BD2DE911
:10575000F04704460D461646A046A946B246002725
:10576000EE48006820F08000EC49086000BF30E09F
:10577000EA480078C0F3C01040B1E848006820F063
:105780008000E64908600120BDE8F087E348008812
:10579000C0F3402038B1E148006820F40070DF49D0
:1057A00008600220F0E740F24C41DD4804F087FC3D
:1057B00040F24C41DB4804F082FC0020DA490880CA
:1057C00049464046FFF734FB5046FFF7ABFF781CD5
:1057D000C7B2052FCCDBD148006820F08000CF494C
:1057E000086040F24C41CF4804F069FC0020CE49EB
:1057F000088000BFC8E710B50D21CCA0FFF79BFAC9
:105800000120CE4908604FF00500FFF78BFF012013
:10581000CB49C1F884010F20FFF784FF0020C9495C
:1058200008604FF01E00FFF77DFF03220421C648E9
:10583000FFF78DFF28B11521C4A0FFF77CFA0120E6
:1058400010BD1421C7A0FFF776FA0020F8E710B5C5
:105850000E21CAA0FFF76FFA0120BA4908604FF085
:105860000F00FFF75FFF0020B549C1F88401022057
:10587000FFF758FF02220421B348FFF768FF28B161
:105880001521C2A0FFF757FA002010BD1621C5A0B0
:10589000FFF751FA0020A94908604FF04B00FFF7CD
:1058A00041FF0120F1E710B500242621C3A0FFF736
:1058B00042FA00BF79E002220A21CA48FFF747FFF7
:1058C000002865D0964880782B286CD19448C07801
:1058D000432868D192480079522864D19048407991
:1058E000452860D18E48807947285CD18C48C079A2
:1058F0003A2858D18A48C07A312804D11D21BAA04B
:10590000FFF719FA53E08648C07A352804D11721E9
:10591000BDA0FFF710FA4AE08148C07A30280AD1CA
:105920000A20FFF7FFFE632C3DD12821BCA0FFF722
:1059300002FA002010BD7A48C07A32280AD10A2023
:10594000FFF7F0FE632C2ED12821B5A0FFF7F3F965
:105950000020EFE77248C07A33280AD10A20FFF707
:10596000E1FE632C1FD12821ADA0FFF7E4F9002050
:10597000E0E76B48C07A342815D10A20FFF7D2FE41
:10598000632C10D12821A6A0FFF7D5F90020D1E77C
:105990000A20FFF7C7FE092C05D12821A0A0FFF798
:1059A000CAF90020C6E7601CC4B20A2C83DB00BF22
:1059B0002721A5A0FFF7BFF9002479E002220B21DF
:1059C000AB48FFF7C4FE002865D0554880782B28E7
:1059D0006CD15348C078432868D151480079472892
:1059E00064D14F484079522860D14D48807945288C
:1059F0005CD14B48C079472858D14948007A3A28A9
:105A000054D14748007B312804D1222199A0FFF7C7
:105A100092F94FE04248007B352804D11C219EA01A
:105A2000FFF789F946E03E48007B30280AD10A207A
:105A3000FFF778FE0E2C39D128219FA0FFF77BF9C4
:105A4000002077E73648007B322806D10A20FFF78E
:105A500069FE0E2C2AD100206CE73148007B3328E8
:105A60000AD10A20FFF75EFE0E2C1FD1282192A03A
:105A7000FFF761F900205DE72948007B342815D144
:105A80000A20FFF74FFE0E2C10D128218AA0FFF725
:105A900052F900204EE70A20FFF744FE0E2C05D1F4
:105AA000282185A0FFF747F9002043E7601CC4B216
:105AB0000F2C83DB00BF01203CE710B50D2188A02F
:105AC000FFF739F9022206218948FFF740FE002836
:105AD00020D1102187A0FFF72EF91AE0FFF78BFEE7
